:100000000C9458000C9480000C9480000C94800098
:100010000C9480000C9480000C9480000C94800060
:100020000C9480000C9480000C9480000C94800050
:100030000C9480000C9480000C9480000C94800040
:100040000C9452040C9480000C94C2040C949C04F4
:100050000C9480000C9480000C9480000C94800020
:100060000C94F4040C94800000000000250028008B
:100070002B00040404040404040402020202020229
:10008000030303030303010204081020408001025C
:1000900004081020010204081020000000080002DB
:1000A0000100000304070000000000000000130628
:1000B00011241FBECFEFD8E0DEBFCDBF11E0A0E01E
:1000C000B1E0E8E0F5E102C005900D92AE33B10772
:1000D000D9F722E0AEE3B1E001C01D92A53BB20723
:1000E000E1F710E0C8E5D0E004C02197FE010E94CE
:1000F0005709C735D107C9F70E945A060C94820ADE
:100100000C94000090E0FC01E656FF4F2491FC01A6
:10011000EA57FF4F3491FC01EE58FF4FE491EE2374
:10012000C9F0222339F0233001F1A8F4213019F16C
:10013000223029F1F0E0EE0FFF1FE859FF4FA591A3
:10014000B4918FB7F894EC91611126C030953E239D
:100150003C938FBF08952730A9F02830C9F0243090
:1001600049F7809180008F7D03C0809180008F7758
:1001700080938000DFCF84B58F7784BDDBCF84B5DB
:100180008F7DFBCF8091B0008F778093B000D2CF6E
:100190008091B0008F7DF9CF3E2BDACF3FB7F89436
:1001A0008091AD019091AE01A091AF01B091B001ED
:1001B00026B5A89B05C02F3F19F00196A11DB11DC2
:1001C0003FBFBA2FA92F982F8827BC01CD01620FFE
:1001D000711D811D911D42E0660F771F881F991FB9
:1001E0004A95D1F7089508950895AF92BF92CF929E
:1001F000DF92EF92FF920F931F93CF93DF936C01E7
:100200007B018B01040F151FEB015E01AE18BF08C7
:10021000C017D10759F06991D601ED91FC91019079
:10022000F081E02DC6010995892B79F7C501DF9191
:10023000CF911F910F91FF90EF90DF90CF90BF90E3
:10024000AF900895FC01538D448D252F30E0842F0D
:1002500090E0821B930B541710F0CF9608950197EE
:100260000895FC01918D828D981761F0A28DAE0FDB
:10027000BF2FB11D5D968C91928D9F5F9F73928F62
:1002800090E008958FEF9FEF0895FC01918D828D8E
:10029000981731F0828DE80FF11D858D90E008955B
:1002A0008FEF9FEF0895FC01918D228D892F90E0B3
:1002B000805C9F4F821B91098F739927089581E07D
:1002C00092E00E94530121E0892B09F420E0822F63
:1002D000089580E090E0892B29F00E945F01811150
:1002E0000C9400000895FC01A48DA80FB92FB11D36
:1002F000A35ABF4F2C91848D90E001968F7399275C
:10030000848FA689B7892C93A089B1898C91837039
:1003100080648C93938D848D981306C00288F38932
:10032000E02D80818F7D80830895EF92FF920F935F
:100330001F93CF93DF93EC0181E0888F9B8D8C8D91
:1003400098131AC0E889F989808185FF15C09FB785
:10035000F894EE89FF896083E889F9898081837048
:10036000806480839FBF81E090E0DF91CF911F91F7
:100370000F91FF90EF900895F62E0B8D10E00F5F18
:100380001F4F0F731127E02E8C8D8E110CC00FB6EE
:1003900007FCFACFE889F989808185FFF5CFCE0186
:1003A0000E947301F1CFEB8DEC0FFD2FF11DE35A8D
:1003B000FF4FF0829FB7F8940B8FEA89FB89808109
:1003C0008062CFCFCF93DF93EC01888D8823B9F083
:1003D000AA89BB89E889F9898C9185FD03C0808150
:1003E00086FD0DC00FB607FCF7CF8C9185FFF2CFCD
:1003F000808185FFEDCFCE010E947301E9CFDF91AF
:10040000CF91089520917F01260F3327331F21328A
:100410003105ECF42091D701FC0190E080E024301C
:1004200069F082E00895A0917F012191AC01415AC9
:100430005E4FA40FB52FB11D2C930196861798F32C
:1004400080917F01680F60937F0180E0089581E0D3
:1004500008951092D70181E08093D6011092B101E6
:1004600061E082E10E94820061E083E10E948200FB
:10047000E9EBF0E080818E7F808380818D7F8083B7
:1004800088E48093B80085E48093BC000895CF93FE
:10049000DF9391E090935E018823B9F0C091B8009A
:1004A000D091BA008091BC008A7B8093BC0060E050
:1004B00082E10E94820060E083E10E9482000E944B
:1004C0002902D093BA00C093B800DF91CF9108956C
:1004D0008F929F92AF92BF92CF92DF92EF92FF9254
:1004E0000F931F93CF93DF93D0910002D13208F086
:1004F000D7C0182FC091FF010E94CE006B017C0174
:100500008091D70181116BC082E08093D701109355
:10051000D6018FEF8093D5011092D401D093D301EF
:10052000AFEDB1E0E3EBF1E080E0D81391C01092C1
:10053000B2018091B201CC0FC82BC093B20180915F
:10054000B101813009F088C01092B1010E94CE0043
:100550006B017C018091B2018093BB008091D90135
:100560009091DA01A091DB01B091DC01892B8A2BFB
:100570008B2BA1F00E94CE000091D9011091DA01DD
:100580002091DB013091DC016C197D098E099F09F6
:10059000061717072807390708F442C08091BC00E6
:1005A00083FDD8CF85EC8093BC000E94CE006B0108
:1005B0007C018091D701823009F450C08091D5012F
:1005C0008F3F09F46FC08091D501803209F46CC06F
:1005D0008091D501803309F469C084E026C0809100
:1005E000D9019091DA01A091DB01B091DC01892B56
:1005F0008A2B8B2B09F484CF0E94CE008090D901E6
:100600009090DA01A090DB01B090DC016C197D09BB
:100610008E099F0986169706A806B90608F070CFBE
:100620008091D8010E94470285E01092DE0110926D
:1006300000021092DD01DF91CF911F910F91FF9089
:10064000EF90DF90CF90BF90AF909F908F900895E4
:100650009D9191938F5F69CF85EEA5CF8091D90150
:100660009091DA01A091DB01B091DC01892B8A2BFA
:100670008B2B09F49ECF0E94CE000091D9011091DE
:10068000DA012091DB013091DC016C197D098E09C2
:100690009F09061717072807390708F08ACFC0CF28
:1006A00081E0C3CF80E0C1CF82E0BFCF83E0BDCF88
:1006B0000895E091A7018091A601E81730F4F0E0D9
:1006C000E25CFE4F808190E008958FEF9FEF0895E8
:1006D0009091A7018091A6012FEF3FEF981748F462
:1006E000E92FF0E0E25CFE4F208130E09F5F9093C5
:1006F000A701C90108958091A6019091A701891BC6
:10070000990B0895CF92DF92EF92FF920F931F9370
:10071000CF93DF937C01CB018A012091DD0122235D
:1007200089F0EB016B01C40ED51ECC15DD0569F017
:100730006991D701ED91FC910190F081E02DC70105
:100740000995F3CF642F0E940202C801DF91CF9177
:100750001F910F91FF90EF90DF90CF900895CF936E
:10076000DF931F92CDB7DEB769832091DD0122238D
:10077000F9F020910002203258F021E030E0FC0135
:100780003383228390E080E00F90DF91CF91089532
:100790008091DE01E82FF0E0E152FE4F99819083D5
:1007A0008F5F8093DE018093000281E090E0ECCFC8
:1007B00061E0CE0101960E940202F7CF90E080E056
:1007C0000895CF93DF93EC018B818823A1F088817A
:1007D00091E09093DD018093FF011092DE01109271
:1007E000000281E00E94680291E0811190E0892F6F
:1007F000DF91CF9108951092A7011092A601109257
:10080000DE01109200020E94290283EF90E0909393
:10081000A5018093A40184EF90E09093A3018093BD
:10082000A20181E08B83CE010E94E103982F811108
:10083000CECFDDCF85ED8093BC008091D901909122
:10084000DA01A091DB01B091DC010796A11DB11D79
:1008500023E0B695A795979587952A95D1F720918E
:10086000BC0024FD03C01092D70108954091D90126
:100870005091DA016091DB017091DC01452B462B30
:10088000472B69F30097A105B10541F02AE22A95AB
:10089000F1F700C00197A109B109E1CF8091D8011A
:1008A0000C9447021F920F920FB60F9211242F93B0
:1008B0003F938F939F93AF93BF938091A9019091A2
:1008C000AA01A091AB01B091AC013091A80123E045
:1008D000230F2D3758F50196A11DB11D2093A801B6
:1008E0008093A9019093AA01A093AB01B093AC01AE
:1008F0008091AD019091AE01A091AF01B091B00196
:100900000196A11DB11D8093AD019093AE01A093FE
:10091000AF01B093B001BF91AF919F918F913F9183
:100920002F910F900FBE0F901F90189526E8230F60
:100930000296A11DB11DD2CF1F920F920FB60F923A
:1009400011242F933F934F935F936F937F938F93D4
:100950009F93AF93BF93EF93FF9381E092E00E9448
:100960007301FF91EF91BF91AF919F918F917F9113
:100970006F915F914F913F912F910F900FBE0F900C
:100980001F9018951F920F920FB60F9211242F935C
:100990008F939F93EF93FF93E0911102F0911202D6
:1009A0008081E0911702F091180282FD1BC09081B6
:1009B00080911A028F5F8F7320911B02821741F082
:1009C000E0911A02F0E0EF5FFD4F958F80931A02DD
:1009D000FF91EF919F918F912F910F900FBE0F90EC
:1009E0001F9018958081F4CF1F920F920FB60F922F
:1009F00011242F933F934F935F936F937F938F9324
:100A00009F93AF93BF93EF93FF938091B900887F3B
:100A1000803609F44AC0F0F5883209F4A7C018F509
:100A2000803109F49BC0B8F4882309F4F9C08830F8
:100A300009F494C0FF91EF91BF91AF919F918F9175
:100A40007F916F915F914F913F912F910F900FBECA
:100A50000F901F901895883109F488C0803251F7A3
:100A60008093D50114C0803409F49DC040F48033D4
:100A7000B9F38833F9F68093D50185ECB0C08035A1
:100A800009F485C0883509F496C0883499F60E9427
:100A90001A04D0CF883909F48CC038F5883729F08A
:100AA00050F4883611F0803729F683E08093D7011F
:100AB0001092A10157C0883809F47BC0803919F021
:100AC000803809F0B7CF8091A101803208F071C061
:100AD000E091A10181E08E0F8093A1018091BB0084
:100AE000F0E0EF57FE4F80833DC0803B39F0E0F4EB
:100AF000803A09F479C0883A09F09CCF84E0809369
:100B0000D7011092800110927F01E091A401F09131
:100B1000A501099580917F0181110FC081E080932B
:100B20007F0110925F0109C0803C09F4A6CF883C88
:100B300009F4A3CF883B09F07DCFE091800181E0EB
:100B40008E0F80938001F0E0E15AFE4F8081809308
:100B5000BB009091800180917F0129C08091B201FA
:100B60008093BB0085EC8093BC0064CF9091D4014E
:100B70008091D301981758F5E091D40181E08E0F50
:100B80008093D401F0E0ED54FE4F8081E9CFE091F5
:100B9000D40181E08E0F8093D4018091BB00F0E0FE
:100BA000ED54FE4F80839091D4018091D30198172A
:100BB000C8F285E8D8CFE091D40181E08E0F809310
:100BC000D4018091BB00F0E0ED54FE4F8083809112
:100BD000D60181115CCF81E08093B10184EA8093DA
:100BE000BC001092D70126CF85EC8093BC001092F8
:100BF000D7018091A101803230F4E091A101F0E0B1
:100C0000EF57FE4F10826091A10170E0E091A201C8
:100C1000F091A30181E891E009951092A1010ACF1A
:100C20001092D50134CFE1E0F2E01382128288EE17
:100C300093E0A0E0B0E084839583A683B7832AE0A5
:100C400031E03183208325EC30E03587248724ECA4
:100C500030E03787268720EC30E0318B208B21EC89
:100C600030E0338B228B22EC30E0358B248B26EC6A
:100C700030E0378B268B118E128E138E148EEEE998
:100C8000F2E01382128284839583A683B7838CE17A
:100C900091E091838083EAEAF2E01682158280E691
:100CA000808380E090E0A8E8B0E481839283A3830E
:100CB000B4830895CF93DF9300D01F92CDB7DEB7F2
:100CC000789484B5826084BD84B5816084BD85B527
:100CD000826085BD85B5816085BD80916E00816033
:100CE00080936E00109281008091810082608093D9
:100CF00081008091810081608093810080918000DB
:100D00008160809380008091B10084608093B10005
:100D10008091B00081608093B00080917A008460FF
:100D200080937A0080917A00826080937A0080912B
:100D30007A00816080937A0080917A008068809345
:100D40007A001092C100E0911102F091120282E04B
:100D50008083E0910D02F0910E021082E0910F026B
:100D6000F09110028FEC808310921902E09115022D
:100D7000F091160286E08083E0911302F091140254
:100D8000808180618083E0911302F0911402808160
:100D900088608083E0911302F09114028081806862
:100DA0008083E0911302F091140280818F7D808313
:100DB000F090AA028091AF029091B002009711F0DA
:100DC0000E94F90986E090E00E945D098C01DC0137
:100DD000FC928EE992E012969C938E931197139653
:100DE0001C92139780E290E015969C938E93149733
:100DF0001093B0020093AF021092A7011092A601C7
:100E00001092DE01109200020E94290283EF90E00E
:100E10009093A5018093A40184EF90E09093A301A7
:100E20008093A20181E0F8018383C8010E94E1035D
:100E3000E090AB02F090AC020091AD021091AE02D6
:100E400023E333E343E550E4B701C8010E94CF0731
:100E500087FF9BC020E030E0A901B701C8010E94D4
:100E6000CF0787FF97C0B0E0A0E0F0E0E0E0970197
:100E7000A8016B2F7A2F8F2F9E2F0E94D40720E07E
:100E800030EF4FE755E40E94EA080E9446081092AE
:100E9000B9002CE02093B80020E429839B0194E062
:100EA000369527959A95E1F72A836295607F6B8343
:100EB000E091AF02F091B00284819581039720F117
:100EC00081819281208131E03093DD012093FF0107
:100ED0001092DE0110920002DC01ED91FC91028083
:100EE000F381E02D43E050E0BE016F5F7F4F099535
:100EF000039751F481E00E946802811105C01092AD
:100F0000B90088E48093B8004FE050E06AE271E0F5
:100F100081E092E00E94F50042E050E06AE371E077
:100F200081E092E00E94F50000E010E00E94CE0017
:100F30004B015C0188EEC82E83E0D82EE12CF12C09
:100F40000E94CE00681979098A099B09683E73409E
:100F500081059105A8F3B1E0CB1AD108E108F108A9
:100F6000E8EE8E0EE3E09E1EA11CB11CC114D1045C
:100F7000E104F10429F701151105C1F20E945F0196
:100F80008823A1F20E940000D1CFB3E3A3E3F3E5ED
:100F9000E0E46DCFBE2DAF2DF02FE12F68CF0E9482
:100FA000750808F481E008950E94E8070C94B008E1
:100FB0000E94A90858F00E94A20840F029F45F3F5F
:100FC00029F00C94990851110C94E4080C949F0892
:100FD0000E94C10868F39923B1F3552391F3951B3F
:100FE000550BBB27AA2762177307840738F09F5F4A
:100FF0005F4F220F331F441FAA1FA9F335D00E2EB7
:101000003AF0E0E832D091505040E695001CCAF723
:101010002BD0FE2F29D0660F771F881FBB1F2617E6
:1010200037074807AB07B0E809F0BB0B802DBF01BD
:10103000FF2793585F4F3AF09E3F510578F00C948C
:1010400099080C94E4085F3FE4F3983ED4F3869546
:1010500077956795B795F7959F5FC9F7880F911DAD
:101060009695879597F90895E1E0660F771F881F99
:10107000BB1F621773078407BA0720F0621B730B4C
:10108000840BBA0BEE1F88F7E09508950E94C908FB
:1010900088F09F5798F0B92F9927B751B0F0E1F039
:1010A000660F771F881F991F1AF0BA95C9F714C0E9
:1010B000B13091F00E94E308B1E008950C94E30888
:1010C000672F782F8827B85F39F0B93FCCF3869522
:1010D00077956795B395D9F73EF49095809570957F
:1010E00061957F4F8F4F9F4F0895990F0008550FBF
:1010F000AA0BE0E8FEEF16161706E807F907C0F09E
:1011000012161306E407F50798F0621B730B840BA5
:10111000950B39F40A2661F0232B242B252B21F47F
:1011200008950A2609F4A140A6958FEF811D811D1F
:10113000089597F99F6780E870E060E008959FEF59
:1011400080EC089500240A9416161706180609065E
:10115000089500240A94121613061406050608952D
:10116000092E0394000C11F4882352F0BB0F40F4B5
:10117000BF2B11F460FF04C06F5F7F4F8F4F9F4FF5
:10118000089557FD9058440F551F59F05F3F71F077
:101190004795880F97FB991F61F09F3F79F08795DE
:1011A0000895121613061406551FF2CF4695F1DF67
:1011B00008C0161617061806991FF1CF86957105F7
:1011C000610508940895E894BB2766277727CB012B
:1011D00097F908950E94FD080C94B0080E94A20897
:1011E00038F00E94A90820F0952311F00C9499087A
:1011F0000C949F0811240C94E4080E94C10870F319
:10120000959FC1F3950F50E0551F629FF001729FAB
:10121000BB27F00DB11D639FAA27F00DB11DAA1FBA
:10122000649F6627B00DA11D661F829F2227B00D07
:10123000A11D621F739FB00DA11D621F839FA00D92
:10124000611D221F749F3327A00D611D231F849FE2
:10125000600D211D822F762F6A2F11249F57504039
:101260009AF0F1F088234AF0EE0FFF1FBB1F661FB4
:10127000771F881F91505040A9F79E3F510580F07D
:101280000C9499080C94E4085F3FE4F3983ED4F37F
:10129000869577956795B795F795E7959F5FC1F721
:1012A000FE2B880F911D9695879597F90895EE0F5F
:1012B000FF1F0590F491E02D09940F931F93CF9396
:1012C000DF938230910510F482E090E0E091B30268
:1012D000F091B40230E020E0B0E0A0E0309799F463
:1012E0002115310509F44AC0281B390B243031057A
:1012F000D8F58A819B816115710589F1FB01938382
:101300008283FE0111C040815181028113814817FF
:101310005907E0F04817590799F4109761F01296B1
:101320000C93129713961C933296CF01DF91CF91B5
:101330001F910F9108950093B3021093B402F4CF5C
:101340002115310551F04217530738F0A901DB018F
:101350009A01BD01DF01F801C1CFEF01F9CF9093F0
:10136000B4028093B302CDCFFE01E20FF31F81934D
:1013700091932250310939832883D7CF2091B1022C
:101380003091B202232B41F42091020130910301EC
:101390003093B2022093B1022091000130910101FB
:1013A0002115310541F42DB73EB74091040150910C
:1013B0000501241B350BE091B102F091B202E21756
:1013C000F307A0F42E1B3F0B2817390778F0AC0168
:1013D0004E5F5F4F2417350748F04E0F5F1F509345
:1013E000B2024093B102819391939FCFF0E0E0E08D
:1013F0009CCFCF93DF930097E9F0FC0132971382E3
:101400001282A091B302B091B402ED0130E020E06D
:101410001097A1F420813181820F931F2091B10296
:101420003091B2022817390709F061C0F093B20277
:10143000E093B102DF91CF910895EA01CE17DF0763
:10144000E8F54A815B819E0141155105B1F7E9013B
:10145000FB83EA8349915991C40FD51FEC17FD070F
:1014600061F4808191810296840F951FE90199832F
:101470008883828193819B838A83F0E0E0E01296E7
:101480008D919C9113970097B9F52D913C911197EF
:10149000CD010296820F931F2091B1023091B202CA
:1014A0002817390739F6309751F51092B402109287
:1014B000B302B093B202A093B102BCCFD383C28374
:1014C00040815181840F951FC817D90761F44E5F81
:1014D0005F4F88819981480F591F518340838A81CA
:1014E0009B81938382832115310509F0B0CFF0935E
:1014F000B402E093B3029ECFFD01DC01C0CF1382A2
:081500001282D7CFF894FFCF4F
:101508000000B5028000000000009501F5002201EE
:10151800E20153013101450100000000AF038203DD
:10152800DE0358037B036803590344414320736572
:0E1538007420746F20332E3356000D0A00000D
:00000001FF
